:020000040800F2
:1000000018070020313400089506000897060008FC
:100010009B0600089F060008A306000800000000D9
:10002000000000000000000000000000A70600081B
:10003000A906000800000000AB060008AD06000895
:100040004B3400084B3400084B3400084B34000894
:100050004B3400084B3400084B3400084B34000884
:100060004B3400084B3400084B3400084B34000874
:100070004B3400084B3400084B3400084B34000864
:100080004B3400084B3400084B3400084B34000854
:100090004B3400084B3400084B3400084B34000844
:1000A0004B3400084B3400084B3400084B34000834
:1000B0004B340008AF0600084B3400084B340008EE
:1000C0004B3400084B3400084B3400084B34000814
:1000D0004B3400084B3400084B3400084B34000804
:1000E000CB0600084B3400084B34000800F002F83F
:1000F00000F03AF80AA090E8000C82448344AAF188
:100100000107DA4501D100F02FF8AFF2090EBAE885
:100110000F0013F0010F18BFFB1A43F0010318473B
:10012000A84C0000C84C0000103A24BF78C878C121
:10013000FAD8520724BF30C830C144BF04680C60ED
:10014000704700000023002400250026103A28BF35
:1001500078C1FBD8520728BF30C148BF0B60704739
:100160001FB51FBD10B510BD03F098F91146FFF77C
:10017000F7FF00F0E2F803F0B6F903B4FFF7F2FF7F
:1001800003BC03F0B7F9000000B585B00121880574
:1001900001F049FA0121082001F038FAC020ADF839
:1001A000000003208DF802001C208DF80300694632
:1001B0005A4802F001FC5A4802F04CFD0020ADF80C
:1001C00008004BF6FF70ADF80A003020ADF80C00C7
:1001D0004FF48060ADF80E000001ADF810005148FA
:1001E000019001214E4802F0CCFD01A94C4802F0DB
:1001F0004AFD01214A4802F000FE05B000BD2DE98C
:10020000F05F04460D4616461F46DDF828804FF085
:10021000010BDA4678E00121414802F0D6FD00BF2B
:1002200041493F4802F0B2FE0028F9D00022394689
:100230003B4802F020FE00BF3C49394802F0A6FED0
:100240000028F9D03146364802F00FFE00BF37498A
:10025000891C334802F09AFE0028F8D0B8F1000F4C
:100260001AD1A9464FF0000B0AE014F8011B2C48E4
:1002700002F0FBFD00BF2D49891C294802F086FED3
:100280005FEA0900A9F1010101F0FF09EDD10121A7
:10029000234802F0A6FD37E00121214802F095FD38
:1002A00000BF21491E4802F071FE0028F9D001224A
:1002B00039461B4802F0DFFD00BF1B49491C1848A6
:1002C00002F064FE0028F8D018E0012D07D10021CB
:1002D000134802F092FD0121114802F082FD00BF97
:1002E00011493F310E4802F051FE0028F8D00C4869
:1002F00002F0BDFD2070641C681EC5B2002DE4D163
:100300000121074802F079FD5FEA0A00AAF1010124
:1003100001F0FF0A7FF47FAFBDE8F09F000C0140C1
:1003200000580040E0930400010003008200070031
:1003300000E0401E0028FCD170478AB00121042053
:1003400001F064F92020ADF8240010208DF827007A
:1003500003208DF8260009A9AD4802F02DFB2021CD
:10036000AB4802F0D6FB4FF40020FFF7E1FF00F0AE
:10037000A1FF00F0A5FF00F0EBF9FFF705FF00F08B
:10038000B7F900F069FA00F023FA40E1A1480078DB
:100390000028FAD000209F4908709F489F49A04A32
:1003A000A04BCDE9002102909F4AA049A04800F04F
:1003B00090FAA04AA049A14800F029FA9C48008878
:1003C0009F490988401A00B29949088097480088D7
:1003D0009C490988401A00B29449088092480088D4
:1003E00099490988401A00B28F4908808D480088D1
:1003F00096490988401A00B28A49088088480088CE
:1004000093490988401A00B28549088083480088CA
:1004100090490988401A00B28049088087480088BE
:100420008D490988401A00B28449088082480088B2
:100430008A490988401A00B27F4908807D480088AF
:1004400087490988401A00B27A4908807848B0F98B
:10045000000004F0FFF90546824904F047FA82499A
:1004600008607248B0F9000004F0F4F905467D49CF
:1004700004F03CFA7D4908606B48B0F9000004F0D4
:10048000E9F90546774904F031FA79490860694885
:10049000B0F9000004F0DEF905466748B0F9000045
:1004A00004F0D8F906466548B0F9000004F0D2F926
:1004B00007465A48B0F9000004F0CCF98046584885
:1004C000B0F9000004F0C6F981465648B0F90000C2
:1004D00004F0C0F9824667486749684A5346CDE947
:1004E0000098CDE90276CDE90452CDE906106048C6
:1004F00002685E4801685C48006800F05FFA49489D
:100500000088000A5E49887046480078C8704448F0
:100510000088000A08714248007848713F48008806
:10052000000A88713D480078C871564953480068F0
:1005300004F0DCF9054604F071F900B25249088074
:1005400008460088000A4E4908724F4800784872F1
:100550004C494948006804F0C9F9054604F05EF9C1
:1005600000B24949088008460088000A4449887258
:1005700045480078C87243493E48006804F0B6F91F
:10058000054604F04BF900B23F4908800846008850
:10059000000A3B4908733C4800784873A5208873DB
:1005A000C8733A480078012831D1002037490870D3
:1005B0004FF40070ADF8240018208DF827000320B8
:1005C0008DF8260009A9124802F0F6F900240DE082
:1005D0002B48015D2E4802F0C7F800BF40212C488F
:1005E00002F030F90028F9D0601C84B2102CEFDB47
:1005F00004208DF8270009A9054802F0DDF9044818
:100600000C30006880F0200001490C310860BDE624
:1006100000080140000000203800002030000020C9
:100620002E0000202C0000202A000020280000209E
:100630002600002036000020340000203200002078
:100640003A0000203C0000203E0000204000002036
:100650004200002044000020460000204800002006
:100660004A00002011C2793D580000205C000020A3
:100670006000002054000020500000204C000020AA
:10068000020000200000C842640000200100002099
:1006900000380140704700BFFEE700BFFEE700BF23
:1006A000FEE700BFFEE7704770477047704710B520
:1006B00001210C4801F007FF30B10121094801F088
:1006C00013FF01200849087010BD10B54FF4005009
:1006D00002F0A4FD28B1012004490870400302F093
:1006E000AEFD10BD0004004000000020010000200D
:1006F0001FB51D208DF8000000208DF8010002209C
:100700008DF8020001208DF80300684602F0A9FC74
:100710000121022000F087FF41F61F40ADF80800DC
:100720001820ADF804000020ADF80A00ADF806006E
:1007300001A9064801F0A2F80121044801F0FAFBE2
:1007400001221146014801F010FC1FBD00040040C9
:1007500000B585B00121042000F058FF4FF400706F
:10076000ADF8100018208DF8130003208DF812004A
:1007700004A9154802F020F94FF48060ADF810008C
:1007800004208DF8130004A90F4802F015F94FF466
:10079000E13000900020ADF80400ADF80600ADF89F
:1007A0000800ADF80C000C20ADF80A000121880308
:1007B00000F02CFF6946054801F0DDFE01210348E9
:1007C00001F065FF05B000BD0008014000380140A0
:1007D0001CB57820019000203C23024601210090A6
:1007E00001A8FFF70CFDA020019000203C2301226E
:1007F0001146009001A8FFF702FD002001903C2364
:1008000002220121009001A8FFF7F9FC1CBDFEB5F2
:1008100004460D46164601203C2303220621009083
:1008200001A8FFF7ECFC9DF805109DF8040001EB12
:10083000002000B220809DF809109DF8080001EB0F
:10084000002000B228809DF807109DF8060001EBFB
:10085000002000B23080FEBD1CB5002001900220B7
:1008600001900020D02337220121009001A8FFF73A
:10087000C6FC00200190D0236A220121009001A82B
:10088000FFF7BDFC00200190D0236B2201210090D6
:1008900001A8FFF7B4FC00200190D0236C220121B5
:1008A000009001A8FFF7ABFC182001900020D02396
:1008B0001B220121009001A8FFF7A1FC0820019054
:1008C0000020D0231C220121009001A8FFF797FCF3
:1008D0001CBD2DE9F04786B004460D4616461F465E
:1008E000DDE90F9ADDF838800120D0233B220E216C
:1008F000009002A8FFF783FC9DF809109DF80800FE
:1009000001EB002000B238809DF80B109DF80A0022
:1009100001EB002000B2A8F800009DF80D109DF832
:100920000C0001EB002000B2A9F800009DF80F10A8
:100930009DF80E0001EB002000B2AAF800009DF81F
:1009400011109DF8100001EB002000B220809DF8EE
:1009500013109DF8120001EB002000B228809DF8D2
:1009600015109DF8140001EB002000B2308006B095
:10097000BDE8F0872DE9F04704464FF07C51204652
:1009800003F0B4FF814625462E46FE48A0EB6606DE
:1009900035462946484603F0A9FF8246294603F01A
:1009A000A5FF80464FF07F5104F09DF80746294689
:1009B00003F09CFF05462846BDE8F0870FB5A9B0B7
:1009C00000212C9803F0F6FE09D100212E9803F0A7
:1009D000F1FE04D100212F9803F0ECFE7ED0EA490D
:1009E000299803F083FF2990E7492A9803F07EFFB6
:1009F0002A90E5492B9803F079FF2B902F99084610
:100A000003F074FF0C902E99084603F06FFF0A90D4
:100A10002C99084603F06AFF09900A9903F05CFEDE
:100A20000B900C9903F058FE0D90FFF7A3FF289050
:100A300028992C9803F05AFF2C9028992E9803F0AF
:100A400055FF2E9028992F9803F050FF2F90329940
:100A5000084603F04BFF0C903199084603F046FF1F
:100A60000A903099084603F041FF09900A9903F073
:100A700033FE0B900C9903F02FFE0D90FFF77AFFD9
:100A800028902899309803F031FF309028993198B8
:100A900003F02CFF31902899329803F027FF329011
:100AA000BA480168006803F021FF2790B848016840
:100AB000B648006803F01AFF2690B6480168B348AC
:100AC000006803F013FF2590B3480168AF48006841
:100AD00003F00CFF2490AE48016800E002E20068D9
:100AE00003F004FF2390AB480168A948006803F0B5
:100AF000FDFE2290A8480168A548006803F0F6FEB4
:100B00002190A4480168006803F0F0FE2090A248FC
:100B10000168A048006803F0E9FE1F909E48016844
:100B2000006803F0E3FE1E902599219803F0D4FDA0
:100B30000A90329903F0DAFE0C902499229803F07F
:100B4000DDFF0890319903F0D1FE0A904FF07C5000
:100B5000209903F0D3FF07901E9903F0CFFF089070
:100B6000309903F0C3FE09900A9903F0B5FD0B908C
:100B70000C9903F0B1FD4FF080410D9003F0B6FEEB
:100B80001D9026991F9803F0B9FF0A90329903F03F
:100B9000ADFE0C904FF07C50239903F0AFFF07900F
:100BA0001E9903F0ABFF0890319903F09FFE0A9065
:100BB0002499229803F090FD0890309903F096FE56
:100BC00009900A9903F088FD0B900C9903F084FDBD
:100BD0004FF080410D9003F089FE1C901C9908464F
:100BE00003F084FE08901D99084603F07FFE0790ED
:100BF000089903F071FD099003F042FDCDE90A0167
:100C000003F004F8CDE90C0103F026F81B904FF037
:100C10007C50239903F072FF0990209903F06EFF36
:100C20000A90329903F062FE0C9026991F9803F007
:100C300053FD0890319903F059FE0A9025992198A7
:100C400003F05CFF0890309903F050FE09900A9978
:100C500003F042FD0B900C9903F03EFD4FF08041F4
:100C60000D9003F043FE1A902599219803F046FF5A
:100C700019901F99269803F02FFD18904FF07C5182
:100C8000279803F03BFF0D901E9903F025FD179068
:100C90002599219803F032FF0B901A9903F026FE54
:100CA0000D904FF07C50209903F028FF0A901E9978
:100CB00003F024FF0B901B9903F018FE0C900D9984
:100CC00003F00AFD16901F99269803F005FD0B907E
:100CD0001A9903F00BFE0D902499229803F00EFF51
:100CE0000B901B9903F002FE0C900D9903F0F4FC9D
:100CF00015904FF07C50239903F000FF0A90209943
:100D000003F0FCFE0B901A9903F0F0FD0D90219971
:100D1000259803F0E1FC0B901B9903F0E7FD0C9084
:100D20000D9903F0D9FC14901599329803F0DEFD6B
:100D30000B901499319803F0D9FD0A900B9903F0A8
:100D4000DDFE0D9018992F9803F0D0FD0B901799A8
:100D50002E9803F0CBFD0A900B9903F0CFFE0C9078
:100D60000D9903F0B9FC13901499309803F0BEFD6F
:100D70000B901699329803F0B9FD0A900B9903F085
:100D8000BDFE0BE0DF59375F98F98E3C7000002004
:100D900074000020780000207C0000200D9017993E
:100DA0002C9803F0A3FD0B9019992F9803F09EFD4A
:100DB0000A900B9903F0A2FE0C900D9903F08CFCA5
:100DC00012901699319803F091FD0B901599309877
:100DD00003F08CFD0A900B9903F090FE0D90199989
:100DE0002E9803F083FD0B9018992C9803F07EFD4C
:100DF0000A900B9903F082FE0C900D9903F06CFCA5
:100E000011900021FE48006803F03CFE45D2FC48EA
:100E10001399006803F06AFDFA490C9003F066FD2F
:100E20000D90F94801680D9803F056FCF6490860EA
:100E3000F3481299006803F059FDF2490C9003F051
:100E400055FD0D90F14801680D9803F045FCEF4900
:100E50000860EB481199006803F048FDE9490C90DF
:100E600003F044FD0D90EA4801680D9803F034FC4E
:100E7000E7490860E4480168299803F02DFC2990AF
:100E8000E24801682A9803F027FC2A90E0480168AC
:100E90002B9803F021FC2B9006E00020DA49086033
:100EA000DA490860DA490860DA481399006803F003
:100EB0001DFD0D90299903F00FFC2990D54812993A
:100EC000006803F013FD0D902A9903F005FC2A90A9
:100ED000D0481199006803F009FD0D902B9903F09B
:100EE000FBFB2B90CC49299803F000FD2990CA49BF
:100EF0002A9803F0FBFC2A90C7492B9803F0F6FCD4
:100F00002B90C64800681090C54800680F90C548EF
:100F100000680E90C4482B99006803F0E7FC0C9021
:100F20002A990E9803F0E2FC0A900F9880F0004096
:100F30000890299903F0DAFC09900A9903F0DEFD84
:100F40000B900C9903F0DAFD0D90B44801680D98F0
:100F500003F0C2FBB1490860B3482A99006803F066
:100F6000C5FC0C902B990E9803F0C0FC0A901099C8
:100F7000299803F0BBFC09900A9903F0ADFB0B9094
:100F80000C9903F0BBFD0D90A54801680D9803F086
:100F9000A3FBA3490860A4480168299803F0A6FCB4
:100FA0000C902B990F9803F0A1FC0A902A991098A5
:100FB00003F09CFC09900A9903F0A0FD0B900C999A
:100FC00003F08AFB0D90974801680D9803F084FBAD
:100FD000944908600E99299803F088FC0C902A998E
:100FE0000F9803F083FC0A902B99109803F07EFC75
:100FF00009900A9903F070FB0B900C9903F07EFDA9
:101000000D90894801680D9803F066FB86490860D9
:1010100008460168006803F069FC0C90814801688B
:10102000006803F063FC0A907D480168006803F0E3
:101030005DFC089079480168006803F057FC079050
:10104000089903F049FB09900A9903F045FB0B90BE
:101050000C9903F041FB0D90FFF78CFC28906F4832
:101060002899006803F042FC6C4908606C48289994
:10107000006803F03BFC6A4908606A4828990068E8
:1010800003F034FC6749086067482899006803F05A
:101090002DFC65490860084601684FF0804003F068
:1010A00025FC019060480168019803F01FFC039043
:1010B0005C4801684FF0404003F018FC019059482B
:1010C0000168019803F012FC0290039903F016FDE9
:1010D0004FF07E51049003F0FFFA059003F0D0FA30
:1010E000CDE908014D4801684FF0804003F0FEFB58
:1010F00002904D480168029803F0F8FB04904848BC
:1011000001684FF0804003F0F1FB02904548016810
:10111000029803F0EBFB0390049903F0DDFA0590CD
:1011200003F0AEFACDE90601DDE9082302F0AEFCDA
:1011300081F000414FF000523C4BCDE90A0102F032
:10114000C5FFCDE90C0102F087FD359908603348F1
:1011500001684FF0804003F0C9FB049031480168FA
:10116000049803F0C3FB06902D4801684FF04040FF
:1011700003F0BCFB04902C480168049803F0B6FB14
:101180000590069903F0A8FA079003F079FACDE9E3
:10119000080102F033FA81F000414FF00052234B76
:1011A000CDE90A0102F092FFCDE90C0102F054FDF5
:1011B000339908601B4801684FF0804003F096FBAC
:1011C000019018480168019803F090FB03901448BF
:1011D00001684FF0404003F089FB0190104801681E
:1011E000019803F083FB0290039903F087FC4FF012
:1011F0007E51049003F070FA059003F041FA17E075
:101200006C0000200AD7233B8000002084000020CF
:1012100088000020680000200AD7A33A7000002050
:1012200074000020780000207C000020DCA54C40E9
:10123000CDE908011A4801684FF0804003F056FBE1
:10124000029018480168029803F050FB0490164879
:1012500001684FF0804003F049FB02901348016899
:10126000029803F043FB0390049903F035FA0590CC
:1012700003F006FACDE90601DDE9082302F006FCD9
:101280004FF000520A4BCDE90A0102F01FFFCDE9F1
:101290000C0102F0E1FC349908602DB000BD0000A3
:1012A0007000002074000020780000207C000020E6
:1012B000DCA54C4010B54FF4E06001F0CDFE10BD50
:1012C0001FB50121052000F0A1F90121042000F043
:1012D0009DF948208DF80F004FF40050ADF80C0038
:1012E00003A9124801F068FB0D21002001F07AFCEF
:1012F0004FF40050019000208DF808000C208DF86C
:10130000090001208DF80A0001A801F021FF282022
:101310008DF8000000208DF8010001208DF80200FA
:101320008DF80300684601F09CFE1FBD00080140D7
:10133000DF48006840F00100DD4908600846406869
:10134000DC490840DA49486008460068DA49084044
:10135000D74908600846006820F4802008600846E5
:10136000406820F4FE0048604FF41F00886070471A
:10137000CF49096821F48031CD4A116011460968CE
:1013800021F480211160B0F5803F03D0B0F5802FAB
:101390000ED106E0C649096841F48031C44A1160A3
:1013A00007E0C349096841F4A021C14A116000E087
:1013B00000BF00BF704710B5014600220023002087
:1013C0004A11012A02D1BA4C236806E0022A02D14E
:1013D000B74C236A01E0B64C636A01F01F02012496
:1013E00094401C400CB1012000E0002010BD38B535
:1013F000002000900024002500BF3120FFF7DBFF14
:1014000005460098401C00900098B0F5A06F01D0F0
:10141000002DF2D03120FFF7CEFF08B1012400E00B
:101420000024204638BD01460020A14A106820F063
:10143000F80040EAC10010607047A049086070479A
:10144000024600209A4B586820F47C1042EA0103BF
:101450001843974B58607047984908667047014693
:101460000020934A506820F0030008435060704702
:101470008F48406800F00C007047014600208C4AFD
:10148000506820F0F000084350607047014600208B
:10149000874A506820F4E060084350607047014676
:1014A0000020834A506820F4605040EAC100506038
:1014B000704729B17E4A527A02437D4B5A7204E04A
:1014C0007B4A527A82437A4B5A7270477B49D831B1
:1014D0000860704701460020754A506820F440407B
:1014E0000843506070470021714A20321170704AE1
:1014F00082F82010012802D004280AD104E001213A
:101500006B4A2032117005E00521694A20321170C2
:1015100000E000BF00BF7047694908607047644938
:10152000096A0143624A116270476549443908609B
:10153000704730B500210022002400235C4D6D6807
:1015400005F00C0121B1042905D0082923D105E0BB
:101550005C4D056022E05B4D05601FE0544D6D68F9
:1015600005F47012524D6D6805F48034022505EBC8
:1015700092421CB9544D554305600BE04C4D6D68CB
:1015800005F400351DB1504D5543056002E04D4D49
:101590005543056002E04B4D056000BF00BF444D60
:1015A0006D6805F0F0010909484D6B5C0568DD4088
:1015B00045603F4D6D6805F4E061090A434D6B5C81
:1015C0004568DD4085603A4D6D6805F46051C90A93
:1015D0003E4D6B5C4568DD40C560354D6D6805F47A
:1015E0004041890B3A4D6B5CC568B5FBF3F505616D
:1015F00030BD29B12E4A526902432D4B5A6104E095
:101600002B4A526982432A4B5A61704729B1284AB2
:1016100092690243264B9A6104E0254A926982430B
:10162000234B9A61704729B1214AD2690243204B6A
:10163000DA6104E01E4AD26982431D4BDA617047C9
:1016400029B11B4AD2680243194BDA6004E0184AF8
:10165000D2688243164BDA60704729B1144A126986
:101660000243134B1A6104E0114A12698243104B82
:101670001A61704712494039086070470F49C864C1
:1016800070470B49C87170470948406A40F0807044
:1016900007494862704701460020054A92680A409F
:1016A0000AB1012000E000207047014988727047AC
:1016B000001002400000FFF8FFFFF6FE000042426B
:1016C0008004424200127A0000093D008C00002094
:1016D0009C00002010B50446FE48844208D1012138
:1016E000C014FFF7ADFF0021E014FFF7A9FFC4E02D
:1016F000B4F1804F08D101210846FFF7AEFF002169
:101700000120FFF7AAFFB8E0F348844208D1012185
:101710000220FFF7A2FF00210220FFF79EFFACE0AE
:10172000EE48844208D101210420FFF796FF0021F2
:101730000420FFF792FFA0E0E948844208D101218C
:101740000820FFF78AFF00210820FFF786FF94E0BA
:10175000E448844208D101211020FFF77EFF0021D8
:101760001020FFF77AFF88E0DF48844208D101218A
:101770002020FFF772FF00212020FFF76EFF7CE0A2
:10178000DA48844208D101214014FFF759FF0021B3
:101790006014FFF755FF70E0D548844209D101215C
:1017A000C804FFF74DFF00214FF40020FFF748FF6A
:1017B00063E0D048844209D101210805FFF740FFCA
:1017C00000214FF48010FFF73BFF56E0CA488442E7
:1017D00009D101214805FFF733FF00214FF4001024
:1017E000FFF72EFF49E0C548844208D1012140207F
:1017F000FFF733FF00214020FFF72FFF3DE0C048F7
:10180000844208D101218020FFF727FF002180209A
:10181000FFF723FF31E0BB48844208D10121801546
:10182000FFF71BFF0021A015FFF717FF25E0B648C3
:10183000844209D101210804FFF702FF00214FF47F
:101840008030FFF7FDFE18E0B048844209D1012145
:101850004804FFF7F5FE00214FF40030FFF7F0FEDB
:101860000BE0AB48844208D101218804FFF7E8FE71
:1018700000214FF48020FFF7E3FE10BD0022028814
:10188000944B98420ED0994B98420BD0B0F1804FB8
:1018900008D0914B984205D0904B984202D0904B83
:1018A000984204D14FF68F731A404B881A438D4BE0
:1018B000984207D08C4B984204D04FF6FF431A4011
:1018C000CB881A4302808B8883850B880385814BE4
:1018D00098420BD0854B984208D08B4B984205D04C
:1018E0008A4B984202D08A4B984201D10B7A0386E8
:1018F00001238382704770B5002400220023058CE9
:101900004FF6FE7635400584028C8388048B4FF6B3
:101910008F752C40B51E2C400D882C43751E2A4017
:101920000D892A434D882A436A4DA8420BD06F4D3A
:10193000A84208D0744DA84205D0744DA84202D0E8
:10194000734DA84213D14FF6F7752A404D892A43AB
:101950004FF6FB752A408D882A434FF6FF652B40D2
:101960004FF6FF552B408D892B43CD892B43838028
:101970000483CD888586028470BD70B50024002262
:101980000023058C4FF6EF7635400584028C838862
:10199000048B48F6FF752C404FF6FF452C400D8810
:1019A0004FF6FF7606EA05252C434FF6DF752A40F1
:1019B0000D8906EA05152A434D8806EA05152A43CE
:1019C000444DA84202D0494DA8421DD14FF67F7523
:1019D0002A404D894FF6FF7606EA05152A434FF651
:1019E000BF752A408D8806EA05152A434FF6FF3554
:1019F0002B404FF2FF752B408D8906EA85052B435E
:101A0000CD8906EA85052B4383800483CD8805872D
:101A1000028470BD70B5002400220023058C4FF6AF
:101A2000FF6635400584028C8388848B4FF68F7562
:101A30002C404FF6FC752C400D882C434FF6FF557B
:101A40002A400D894FF6FF7606EA05252A434D8880
:101A500006EA05252A431F4DA84202D0234DA8427D
:101A60001DD14FF2FF752A404D894FF6FF7606EAE9
:101A700005252A434FF6FF352A408D8806EA0525BD
:101A80002A434EF6FF752B404DF6FF752B408D898E
:101A900006EA05152B43CD8906EA05152B438380FD
:101AA0008483CD888587028470BD70B500220023B1
:101AB0000024058C4EF6FF7635400584038C84881F
:101AC000828B48F6FF752A404FF6FF452A400D8865
:101AD00020E00000002C014000040040000800400D
:101AE000000C004000100040001400400034014091
:101AF000004C0140005001400054014000180040DB
:101B0000001C004000200040004001400044014013
:101B1000004801404FF6FF7606EA05252A434DF6B8
:101B2000FF752B400D8906EA05352B434D8806EAE3
:101B300005352B43FA4DA84202D0FA4DA84208D1F0
:101B40004BF6FF752C408D894FF6FF7606EA85151A
:101B50002C4384808283CD88A0F84050038470BDDC
:101B6000828B4FF2FF331A408283828B4FF6FF73D2
:101B700003EA01231A4382837047F0B50C461546E9
:101B8000002200210026078C4EF6FF7C07EA0C0796
:101B90000784828B018C4FF6FF7707EA043640F604
:101BA000FF473A404FF6FF7707EA05273A434FF6DB
:101BB000FF7707EA03373A43D94FB8420ED0D94FDF
:101BC000B8420BD0B0F1804F08D0D74FB84205D003
:101BD000D64FB84202D0D64FB84206D14DF6FF7765
:101BE000394046F48057394305E047F6FF573940FE
:101BF00044F48057394382830184F0BD828B4FF6D1
:101C0000F3731A408283828B0A4382837047F0B554
:101C10000C461546002200210026078C4FF6FF6C6B
:101C200007EA0C070784828B018C4FF6FF7707EADF
:101C300004264FF60C773A404FF6FF7707EA031772
:101C40002F433A43B64FB8420ED0B64FB8420BD0EE
:101C5000B0F1804F08D0B44FB84205D0B34FB8426E
:101C600002D0B34FB84206D14FF6FF57394046F481
:101C70008077394305E04FF2FF57394044F48077CD
:101C8000394382830184F0BD028B4FF2FF331A4047
:101C90000283028B4FF6FF7303EA01231A43028388
:101CA0007047F0B50C461546002200210026078C2F
:101CB0004FF6EF7C07EA0C070784028B018C4FF686
:101CC000FF7707EA041640F6FF473A404FF6FF77E2
:101CD00007EA03373A434FF6FF7707EA05273A4307
:101CE0008F4FB8420ED08F4FB8420BD0B0F1804F1B
:101CF00008D08D4FB84205D08C4FB84202D08C4FDF
:101D0000B84206D14FF6DF77394046F01007394325
:101D100005E04FF65F77394044F0100739430283FE
:101D20000184F0BD028B4FF6F3731A400283028BDD
:101D30000A4302837047F0B50C4615460022002185
:101D4000068C4FF6FE773E400684028B018C4FF6E0
:101D50000C7632407E1C06EA03162E433243704E48
:101D6000B0420ED06F4EB0420BD0B0F1804F08D0D1
:101D70006D4EB04205D06D4EB04202D06C4EB042B6
:101D800006D14FF6FD76314044F00106314305E0BF
:101D90004FF6F576314044F0010631430283018469
:101DA000F0BD70B505460C465D4885420ED05D48D5
:101DB00085420BD0B5F1804F08D05B48854205D0F5
:101DC0005A48854202D05A48854200D100E000BFFF
:101DD000208850B92389A28861882846FFF7ABFF85
:101DE000E1882846FFF79EFF25E0208804280AD1D5
:101DF0002389A28861882846FFF753FFE188284697
:101E0000FFF742FF17E0208808280AD12389A2881B
:101E100061882846FFF7FBFEE1882846FFF7EEFEC3
:101E200009E02389A28861882846FFF7A6FEE18899
:101E30002846FFF795FE70BD2DE9F04105460C469A
:101E400000260127608808B9022600E00026A08845
:101E5000012801D1022700E001272088A0B92389A9
:101E6000A28861882846FFF766FFE1882846FFF7C9
:101E700059FF23893A4631462846FFF712FFE18889
:101E80002846FFF701FF13E02389A28861882846CE
:101E9000FFF707FFE1882846FFF7F6FE23893A4659
:101EA00031462846FFF747FFE1882846FFF73AFF0B
:101EB000BDE8F0810A884B881A438B881A43CB8887
:101EC0001A430B891A434B891A438B891A43A0F88A
:101ED000442070474FF6FF71818000210180C1804E
:101EE0004180017270470021018041808180C18062
:101EF000018141818181C181704700210180418040
:101F0000012181800021C180018170470021018071
:101F100041808180C18001814181818170470000C1
:101F2000002C014000340140000400400008004043
:101F3000000C004021B1028842F00102028004E05E
:101F400002884FF6FE731A400280704731B1B0F834
:101F5000442042F40042A0F8442005E0B0F84420B8
:101F6000C2F30E02A0F8442070471AB183890B43D4
:101F7000838102E083898B4383817047818270472C
:101F800041EA0203A0F8483070471AB183890B4335
:101F9000838102E083898B438381704701894FF6F7
:101FA000F8721140018170470A46002101894FF6FD
:101FB0008F73194011430181704730B504460D46B7
:101FC00029462046FFF7F0FF208940F007002081D6
:101FD00030BD2DE9F04104460D4616461F46602DE2
:101FE00006D13B46012231462046FFF75AFE05E066
:101FF0003B46012231462046FFF79DFE29462046FA
:10200000FFF7D2FF208940F007002081BDE8F08172
:1020100030B50C4600210189C9B24FF6FF7505EABB
:102020000325154325432943018130BD2DE9F041A6
:1020300005460E4617469846002443463A46314622
:102040002846FFF7E5FF2C894FF6F870044044F06E
:1020500007044FF68F70044044F070042C81BDE8F3
:10206000F081F0B504460D4616461F463B46324603
:1020700029462046FFF7CCFF208940F4804020818C
:10208000F0BD0185828270470A46002101884FF623
:102090008F731940114301807047F0B50C46154607
:1020A0001E460021002200230189028B038C4FF67B
:1020B000F877394021434FF6FC473A4040F2011788
:1020C0003A434FF6DD773B404FF6FF7707EA0617B6
:1020D0002F433B43018102830384F0BD0A46002164
:1020E000018B4FF68F7319401143018370470A46E5
:1020F0000021018B48F6FF7319404FF6FF7303EA86
:1021000002231943018370470A460021818B4FF651
:102110008F7319401143818370470A460021818BD8
:1021200048F6FF7319404FF6FF7303EA0223194381
:102130008183704721B1028842F08002028004E06E
:1021400002884FF67F731A400280704721B182885F
:1021500042F00402828004E082884FF6FB731A404A
:102160008280704721B1828842F00802828004E0B8
:1021700082884FF6F7731A408280704721B18288B7
:1021800042F00102828004E082884FF6FE731A401A
:10219000828070470A460021018B4FF6F773194081
:1021A0001143018370470A460021018B4FF2FF73F0
:1021B00019404FF6FF7303EA022319430183704766
:1021C0000A460021818B4FF6F77319401143818332
:1021D00070470A460021818B4FF2FF7319404FF67A
:1021E000FF7303EA02231943818370470A460021E3
:1021F000018B4FF6FB7319401143018370470A4668
:102200000021018B4FF6FF3319404FF6FF7303EAAD
:1022100002231943018370470A460021818B4FF640
:10222000FB7319401143818370470A460021818B5B
:102230004FF6FF3319404FF6FF7303EA02231943A9
:10224000818370470A460021018B4FF67F73194046
:102250001143018370470A460021018BC1F30E012F
:102260004FF6FF7303EA02231943018370470A46BE
:102270000021818B4FF67F73194011438183704792
:102280000A460021818BC1F30E014FF6FF7303EA6A
:1022900002231943818370470A460021018C4FF6BF
:1022A000FD7319401143018470470A460021018CD7
:1022B0004FF6F77319401143018470470A46002115
:1022C000018C4FF6DF7319404FF6FF7303EA0213D8
:1022D0001943018470470A460021018C4FF67F7331
:1022E00019404FF6FF7303EA021319430184704744
:1022F0000A460021018C4FF6FF5319404FF6FF7339
:1023000003EA02231943018470470A460021018C25
:102310004FF2FF7319404FF6FF7303EA022319438C
:10232000018470470A460021018C4DF6FF73194065
:102330004FF6FF7303EA023319430184704730B547
:10234000002301248C40A3B2048C9C430484048C9D
:1023500002FA01F5ADB22C43048430BD30B5002340
:1023600004248C40A3B2048C9C430484048C02FAA1
:1023700001F5ADB22C43048430BD70B50346002096
:1023800000241846183001258D40ACB21D8CA543A1
:102390001D8409B1082909D100EB6100056825F009
:1023A000700505600568154305600EE00D1FC5F357
:1023B0004E052844056825F4E045056005684FF69C
:1023C000FF7606EA02263543056070BD21B102881A
:1023D00042F00202028004E002884FF6FD731A40C8
:1023E0000280704721B1028842F00402028004E0BA
:1023F00002884FF6FB731A400280704721B1828831
:1024000042F08002828004E082884FF67F731A4097
:102410008280704702884FF6F7731A400280028864
:102420000A430280704782884FF68F731A40828079
:1024300082880A438280704702894FF6F8731A40F7
:10244000028102890A430281704702894FF67F7335
:102450001A40028102890A430281704781847047D1
:1024600081857047818670470187704781877047F3
:10247000A0F84010704702884FF6FF431A400280D0
:1024800002880A43028070470146888E70470146E1
:10249000088F70470146888F70470146B1F84000A9
:1024A00070470146888C70470146088D7047024688
:1024B0000020138A0B400BB1012000E00020704780
:1024C000CA430282704730B5024600200023002430
:1024D000158A05EA0103958905EA010413B10CB1D7
:1024E000012000E0002030BDCA4302827047000096
:1024F00010B50446FB48844209D101218803FFF747
:102500009FF800214FF48040FFF79AF832E0F64838
:10251000844209D101214804FFF79FF800214FF4BC
:102520000030FFF79AF825E0F048844209D10121F4
:102530008804FFF792F800214FF48020FFF78DF810
:1025400018E0EB48844209D10121C804FFF785F85F
:1025500000214FF40020FFF780F80BE0E5488442AB
:1025600008D101210805FFF778F800214FF4801009
:10257000FFF773F810BD2DE9F04786B005460E460B
:102580000024A24600BFA1460027B08900B100BFC9
:102590002F462C8A4CF6FF700440F08804432C82AE
:1025A000AC894EF6F3100440B08831890843718934
:1025B00008430443AC81AC8A4FF6FF400440B08925
:1025C0000443AC8201A8FEF7B4FFC648874202D19B
:1025D000DDF810A001E0DDF80CA0A88900F40040AF
:1025E00040B10AEBCA0000EB0A1031684900B0FBA9
:1025F000F1F807E00AEBCA0000EB0A103168890025
:10260000B0FBF1F86420B8FBF0F00401200964216C
:1026100001FB1089A88900F4004040B1322000EB92
:10262000C900B0FBF1F000F00700044308E03220DD
:1026300000EB09106421B0FBF1F000F00F0004433F
:102640002C8106B0BDE8F0874FF4165101600021DF
:102650008180C18001810C214181002181817047ED
:1026600010B502460020108A4FF2FF0318400B8875
:102670004C8823438C882343CC88234318431082FF
:1026800010BD0021018041808180C180704721B14F
:10269000828942F40052828104E082894DF6FF7300
:1026A0001A4082817047F0B50346002400260025B9
:1026B000002040F66A17B94200D100BF1846C1F3A6
:1026C000421401F01F06012707FA06F5012C01D17B
:1026D0000C3004E0022C01D1103000E014301AB1AB
:1026E00007682F43076002E00768AF430760F0BD4B
:1026F0001AB1838A0B43838202E0838A8B438382ED
:102700007047028A4FF6F0731A400282028A0A4327
:102710000282704782894FF2FF731A408281828958
:102720000A438281704721B1828942F0020282818C
:1027300004E082894FF6FD731A4082817047028A55
:102740004FF6DF731A400282028A0A430282704700
:1027500021B1028A42F48042028204E0028A4BF6EE
:10276000FF731A4002827047C1F3080282807047EB
:1027700001468888C0F308007047818941F0010153
:1027800081817047028BD2B20283028B42EA01221E
:1027900002837047028B02F47F420283028B0A435A
:1027A0000283704721B1828A42F02002828204E0D3
:1027B000828A4FF6DF731A408282704721B1828A83
:1027C00042F01002828204E0828A4FF6EF731A40D0
:1027D0008282704721B1828A42F00802828204E03C
:1027E000828A4FF6F7731A408282704721B182893C
:1027F00042F40042828103E08289C2F30E028281A8
:10280000704721B1828A42F40062828204E0828AA7
:102810004FF2FF731A4082827047828A4FF6FB7331
:102820001A408282828A0A438282704721B1828A58
:1028300042F00202828204E0828A4FF6FD731A405F
:102840008282704702460020B1F5007F00D100BFB0
:1028500013880B400BB1012000E00020704701F409
:102860000072B2F5007F00D100BFCA4302807047FA
:1028700070B50246002400230025002040F66A16A9
:10288000B14200D100BFC1F3421501F01F03012680
:1028900006FA03F3012D02D19689334006E0022D9A
:1028A00002D1168A334001E0968A33400C12012689
:1028B00006FA04F41688344013B10CB1012000E08C
:1028C000002070BD10B50022002340F66A14A1421A
:1028D00000D100BF0A1201249440A3B2DC4304805B
:1028E00010BD000000380140004400400048004096
:1028F000004C00400050004010B50446CC488442D3
:1029000008D101210420FEF79BFE00210420FEF7E0
:1029100097FE46E0C748844208D101210820FEF70F
:102920008FFE00210820FEF78BFE3AE0C248844269
:1029300008D101211020FEF783FE00211020FEF7B0
:102940007FFE2EE0BD48844208D101212020FEF701
:1029500077FE00212020FEF773FE22E0B848844273
:1029600008D101214020FEF76BFE00214020FEF738
:1029700067FE16E0B348844208D101218020FEF7AB
:102980005FFE00218020FEF75BFE0AE0AE48844235
:1029900007D101218015FEF753FE0021A015FEF797
:1029A0004FFE10BD10B501210846FEF749FE00217B
:1029B0000120FEF745FE10BD2DE9F041024600253D
:1029C0000026002000230024002791F803C00CF00B
:1029D0000F0591F803C00CF0100CBCF1000F03D0F0
:1029E00091F802C04CEA050591F800C0BCF1000F57
:1029F00031D0146800202BE04FF0010C0CFA00F3EA
:102A0000B1F800C00CEA03069E4220D183004FF0CB
:102A10000F0C0CFA03F7BC4305FA03FC4CEA040460
:102A200091F803C0BCF1280F06D14FF0010C0CFA4D
:102A300000FCC2F814C00AE091F803C0BCF1480FD2
:102A400005D14FF0010C0CFA00FCC2F810C0401C7C
:102A50000828D1D31460B1F800C0BCF1FF0F34DDF9
:102A6000546800202EE000F1080C4FF0010808FA2D
:102A70000CF3B1F800C00CEA03069E4221D183009A
:102A80004FF00F0C0CFA03F7BC4305FA03FC4CEAB9
:102A9000040491F803C0BCF1280F05D100F1080C23
:102AA00008FA0CF8C2F8148091F803C0BCF1480F82
:102AB00007D100F1080C4FF0010808FA0CF8C2F831
:102AC0001080401C0828CED35460BDE8F0814FF63A
:102AD000FF710180022181700421C170704702469C
:102AE000002093680B400BB1012000E000207047EC
:102AF0000146886880B2704702460020D3680B40C8
:102B00000BB1012000E0002070470146C86880B288
:102B1000704701617047416170470AB1016100E08F
:102B200041617047C16070474FF480320A4382614F
:102B30008161826182698269704702460020434B4D
:102B400018684FF68073184040EA021008433F4B64
:102B5000186070473E49C8617047F0B50A460023C7
:102B600000240021002500F00046B6F1004F02D1FC
:102B7000364EF16901E0354E7168C0F3034583B20A
:102B800000F44016B6F5401F08D121F070612F4EB9
:102B9000766826F070662D4F7E6012E000F4801695
:102BA000B6F5801F06D1032606FA05F4A14341F0CD
:102BB000706106E0460D360103FA06F6B14341F0B6
:102BC000706122B1460D360103FA06F6314300F07A
:102BD0000046B6F1004F02D11C4EF16101E01B4EE0
:102BE0007160F0BD30B500228B071C0F0F2303FA74
:102BF00004F2164B08338C1053F824309343134CD3
:102C000008348D1044F8253023468C1053F82430B6
:102C10008C07240F00FA04F423430C4C08348D1065
:102C200044F8253030BD0A49DC31086070470000A7
:102C300000080140000C0140001001400014014058
:102C400000180140001C014000200140000001402C
:102C50000000204210B50446F748844209D1012102
:102C60004805FEF7FAFC00214FF40010FEF7F5FCD2
:102C700008E001218805FEF7F0FC00214FF48000F8
:102C8000FEF7EBFC10BD2DE9F04385B004460D4680
:102C90000026B1460427DFF8A483A6884FF6C0704B
:102CA00006406846FEF745FCDDF80880E448B8FBBE
:102CB000F0F01FFA80F946EA0906A68020884FF650
:102CC000FE71084020800026DE49286888420CD822
:102CD00028684000B8FBF0F087B2042F00DA042720
:102CE0003E4309F10100208427E0E8884BF6FF719C
:102CF000884206D1286800EB4000B8FBF0F087B2AC
:102D000009E0286800EBC00101EB0010B8FBF0F00F
:102D100087B247F48047C7F30B0008B947F00107B3
:102D200047F4004006434FF4967009FB00F04FF45F
:102D30007A7190FBF1F0401C2084A683208840F03B
:102D40000100208026884FF6F5300640A888698962
:102D5000084306432680A88929890843208105B0B5
:102D6000BDE8F08341F288310160002181804BF69B
:102D7000FF71C1800021018141814FF48041818137
:102D8000704721B1028842F00102028004E002880B
:102D90004FF6FE731A400280704721B1828842F4D8
:102DA0000062828004E082884FF2FF731A408280C2
:102DB000704721B1828842F48052828004E0828888
:102DC0004EF6FF731A408280704721B1028842F4A8
:102DD0008072028004E002884FF6FF631A4002808E
:102DE000704721B1028842F40072028004E0028838
:102DF0004FF6FF531A400280704721B1028842F417
:102E00008062028004E002884FF6FF331A4002809D
:102E100070470A46002181894FF60173194002F07C
:102E2000FE0319438181704721B1828942F001027A
:102E3000828104E082894FF6FE731A4082817047D6
:102E400021B1028842F04002028004E002884FF67D
:102E5000BF731A40028070471AB183880B43838086
:102E600002E083888B43838070470182704701466C
:102E7000088AC0B2704712B141F0010102E04FF67A
:102E8000FE7319400182704708B502460020009089
:102E900000920098084400900098008808BD21B175
:102EA000028842F40042028003E00288C2F30E026C
:102EB00002807047B1F5006F04D1028842F40062CD
:102EC000028004E002884FF2FF731A4002807047CC
:102ED000B1F5005F04D1028842F40052028004E0A0
:102EE00002884DF6FF731A400280704721B10288B4
:102EF00042F48052028004E002884EF6FF731A40CA
:102F000002807047B1F5006F04D1028842F400627C
:102F1000028004E002884FF2FF731A40028070477B
:102F200021B1028842F02002028004E002884FF6BC
:102F3000DF731A40028070470146088B0012704709
:102F400021B1028842F01002028004E002884FF6AC
:102F5000EF731A400280704721B9028842F0800264
:102F6000028004E002884FF67F731A4002807047A7
:102F7000B1F5804F05D0828B4BF6FF731A408283E8
:102F800003E0828B42F480428283704770B5024630
:102F90000024002500230020958A138B1B0445EA9A
:102FA000030626F07F4404EA01068E4201D1012087
:102FB00000E0002070BD10B5014600200023002273
:102FC0008B8A0A8B120443EA020424F07F4010BD6E
:102FD0000CB50246002000230193009300920B0FD2
:102FE000019321F07F41019B1BB1009B143300939F
:102FF00003E0090C009B18330093009B1B680B40F7
:103000000BB1012000E000200CBD002221F07F4226
:10301000D3438382704730B5024600200023948852
:1030200001F0E06504EA154321F07F41948A0C40E9
:1030300054B14BB1012008E00054004000127A0066
:1030400040420F00A0860100002030BD002221F088
:103050007F42D3438382704731490143314A116033
:10306000704770B5002100230F22C47804B32D4CA3
:10307000246804F4E064C4F5E064210AC1F10403A7
:10308000CA40447804FA03F18478144021430901CA
:10309000254C0678A155047804F01F050124AC40A6
:1030A00005786D11AD0005F1E025C5F8004109E096
:1030B000047804F01F050124AC401C4D06787611FD
:1030C00045F8264070BD1A4A0A400243154B1B1FA3
:1030D0001A60704739B1134A121D12680243114B2E
:1030E0001B1D1A6006E00F4A121D126882430D4B29
:1030F0001B1D1A607047042808D14FF0E0210969B0
:1031000041F004014FF0E022116107E04FF0E021AF
:10311000096921F004014FF0E022116170470000BD
:103120000000FA050CED00E000E400E080E100E0C2
:1031300080FFFF1F002044490860091D0860091D29
:103140000860091D086041483F4914310860704714
:1031500000213D498279002A3AD00A461268036864
:103160009A430B461A600A1D126803689A430B1DA6
:103170001A60027911440A6803681A430A60324AE5
:103180000832126803689A432F4B08331A601A1DDD
:10319000126803689A432C4B0C331A604279102A48
:1031A0000ED11A1F126803681A43274B08331A609E
:1031B0001A1D126803681A43234B0C331A600DE082
:1031C0002149427911440A6803681A430A6005E0FC
:1031D000027911440A6803689A430A607047002123
:1031E000016001710C214171002181717047164904
:1031F000103109680143144A1032116070470146CA
:103200000020114A143212680A400AB1012000E07D
:10321000002070470C4914310860704701460020B7
:103220000022094B1B6803EA0102074B14331B6899
:103230000B4013B10AB1012000E0002070470249A1
:10324000143108607047000000040140FFFF0F00C8
:103250000CB50020019000906C48006840F480306C
:103260006A49086000BF6948006800F400300090B7
:103270000198401C0190009818B90198B0F5A06F12
:10328000F1D16248006800F4003010B101200090D4
:1032900001E0002000900098012843D15C480068BC
:1032A00040F010005A4908600846006820F003000A
:1032B00008600846006840F0020008605348406813
:1032C000524948600846406848600846406840F4F3
:1032D000806048600846406820F47C1048600846DA
:1032E000406840F4E81048600846006840F080708C
:1032F000086000BF4548006800F000700028F9D061
:103300004248406820F00300404948600846406851
:1033100040F00200486000BF3C48406800F00C00EC
:103320000828F9D10CBD10B5FFF792FF10BD10B5FC
:103330003648006840F0010034490860084640689B
:10334000344908403149486008460068324908401D
:103350002E4908600846006820F48020086008466E
:10336000406820F4FE0048604FF41F008860FFF7BB
:10337000DAFF4FF000602949086010BD10B5002148
:1033800000200022214B5B6803F00C0121B10429CD
:1033900006D0082928D107E0214B224C236027E0E2
:1033A0001F4B204C236023E0184B5B6803F4701024
:1033B000164B5B6803F48032022303EB904022B982
:1033C000194B4343174C23600DE0104B5B6803F42B
:1033D000003323B1144B4343124C236003E0104BE2
:1033E0004343104C236003E00D4B0E4C236000BFA1
:1033F00000BF064B5B68C3F303130C4CE15C094B45
:103400001B68CB40074C236010BD00000010024039
:10341000002002400000FFF8FFFFF6FE08ED00E08C
:1034200000127A00A000002000093D00A400002046
:103430000948804709480047FEE7FEE7FEE7FEE748
:10344000FEE7FEE7FEE7FEE7FEE7FEE70448054984
:10345000054A064B704700002F330008ED000008B6
:10346000180100201807002018030020180300206E
:1034700070477047704710B500F008F8006810BD3D
:1034800010B5044600F002F8046010BD0048704713
:10349000B400002000487047B40000207546FFF7D4
:1034A000F9FFAE4605006946534620F00700854601
:1034B00018B020B5FFF7CAFFBDE820404FF0000666
:1034C0004FF000074FF000084FF0000B21F007010C
:1034D000AC46ACE8C009ACE8C009ACE8C009ACE84F
:1034E000C0098D4670470446AFF300802046FCF7C4
:1034F00044FE000001491820ABBEFEE72600020092
:103500007047490050EAC12018BF04204A0D18BF77
:1035100040F0010040F2FF72B2EB515F08BF40F093
:103520000200012808BF052070472DE9F0414F1E19
:1035300000EBC7010446D1E9000115461E4637F0ED
:1035400006020DD02A46334600F0C0FD7F1E04EB74
:10355000C703D3E9002300F0B1FB37F00602F1D135
:10356000022F25D0042F13D0062F18BFBDE8F081FD
:103570002A46334600F0AAFDD4E90A2300F09EFB58
:103580002A46334600F0A2FDD4E9082300F096FB5A
:103590002A46334600F09AFDD4E9062300F08EFB5C
:1035A0002A46334600F092FDD4E9042300F086FB5E
:1035B0002A46334600F08AFDD4E9022300F07EFB60
:1035C0002A46334600F082FDD4E90023BDE8F041ED
:1035D00000F074BB012201F038BB00F06FBB002289
:1035E00013461046114600F019BC0000024A0020A4
:1035F000110701F02ABB000001FDFFFF2DE9F04D8E
:103600008D4F21F0004A86B005460C46BA452ADBAC
:10361000AAEB070028430AD08848824501DC1AD16A
:10362000CDB106B02846BDE8F04DFFF7D3BF844AC0
:10363000844B284600F04AFD07460E46824A834BDB
:103640002846214600F042FD06B03A463346BDE822
:10365000F04D00F033BB0120FFF712FF06B0BDE8CC
:10366000F04DFFF7BCBF7A48824542DABAF1795F84
:103670000BDA2846FFF745FF042808BFFFF7B6FF1F
:10368000284606B02146BDE8F08D2A460B46104676
:1036900000F01CFD834602466E480E460B4606218E
:1036A0007844FFF742FF5A46334600F00FFD80464C
:1036B00069488A465A46334604217844FFF735FF65
:1036C0005A46334600F002FD00223B4600F0F6FA6F
:1036D00002460B464046514600F0A0FB2A462346D0
:1036E00000F0F4FC06B02A462346BDE8F04D00F099
:1036F000E5BA284624F0004100223D463B4600F052
:10370000E3FD4FF0FF3201F0A0FA064602465348AF
:103710000F460B4606217844FFF707FF32463B462B
:1037200000F0D4FCCDE900014D4832463B4604216F
:103730007844FFF7FAFE32463B4600F0C7FC002211
:103740002B4600F0BBFA834602913046394600F022
:103750005DFA804643480D46504517DCDDE900011F
:103760005A46029B00F05AFB42462B4600F0AEFC44
:1037700042462B4600F0A2FA012201F066FA304AD6
:10378000304B00F093FE304A304B4CE04FF0000AD3
:1037900052460B46404600F091FACDE903105246DE
:1037A0002B461046194600F091FC32463B4600F08D
:1037B0008BFDDDE9033200F031FB06460F46DDE903
:1037C00000015A46029B00F029FB8346009101222A
:1037D0003046394601F039FA194A1A4B00F074FDA7
:1037E00006460F4601224046294601F02EFA5A4667
:1037F000009B00F06BFC32463B4600F057FE06464D
:103800000F4601225046294601F01FFA0E4DDFF8FF
:1038100058802A46434600F057FD32463B4600F0AA
:1038200053FD2A46434600F04FFD002CD8BF81F0DF
:10383000004106B0BDE8F08D0000F03F0000F07FD1
:10384000075C143326A6913C182D4454FB21F93F04
:103850000000E03F341600004A160000BE150000CC
:10386000D41500003333EF3FFB21E93F2DE9F84F3A
:1038700004460D4621F0004000917349814211DC5D
:103880007249884201DC06D12CB120462946BDE8A8
:10389000F84FFFF79FBE6E48002DCCBF6D496E49B3
:1038A000BDE8F88F6D49814211DD6D498142D8BF75
:1038B0004FF0FF366DDD20462946FFF722FE042833
:1038C00008BFFFF793FE20462946BDE8F88F6549FB
:1038D000654F25F00045814233DD6449814219DDA1
:1038E000002632464FF080432046294600F0E6F994
:1038F00080468A4601222046294601F0A6F9002288
:103900003B4600F0D3FD4246534600F087FA04469A
:103910000D463EE001260022BA463B462046294697
:1039200000F0CCF980460F46002253462046294637
:1039300000F0BCFD42463B4600F070FA04460D46DE
:1039400027E04B4981421BDDDFF828A10226002237
:1039500053462046294600F0B9FB00223B4600F0C2
:10396000ADF980460F46002253462046294600F016
:103970009DFD42463B4600F051FA04460D4608E0E4
:10398000032622462B4600203B4900F047FA044616
:103990000D4622462B461046194600F097FB8B46F3
:1039A000824602460B4600F091FB0746024633482A
:1039B00088460B4606217844FFF7B7FD52465B4622
:1039C00000F084FB82462E488B463A46434605214A
:1039D0007844FFF7AAFD3A46434600F077FB0246DB
:1039E0000B46002E504659460CDA00F067F9224685
:1039F0002B4600F06BFB01B022462B46BDE8F04F92
:103A000000F062BC00F05AF922462B4600F05EFB43
:103A10001C4A7A4402EBC603D3E9002300F046FDBA
:103A200022462B4600F042FD174A7A4402EBC603B9
:103A3000D3E9002300F048FC009A002AB8BF81F0C7
:103A40000041BDE8F88F0000000010440000F07F46
:103A5000182D4454FB21F93FFB21F9BF0000DC3F46
:103A60000000203E0000F33F0000F03F0000E63F72
:103A7000008003400000F83F0000F0BFD6130000B4
:103A80009413000032130000FA1200002DE9F04DEB
:103A90009446CCF1000423F000464CEA0404524F53
:103AA00046EAD4749A46884621F00042BC4206D8C1
:103AB000454240EA050442EAD474BC4204D9BDE858
:103AC000F04D6246FFF789BDAAF14055A5F17F652B
:103AD00055EA0C040BD0022404EAAA74434DDFF823
:103AE00010E144EAD87452EA000B04D00CE0BDE8BF
:103AF000F04DFFF7BBBE002C14BF012CBDE8F08DCC
:103B0000022C30D0032C32D056EA0C0B0AD0BE4225
:103B100020D1BA4209D126F0804622F080423346B5
:103B2000114617E000291ADB25E0DFF8C8B0FB4496
:103B3000002C04BFDBE90001BDE8F08D012C02BFC1
:103B4000DBE9000181F00041BDE8F08D022C0AD0D4
:103B5000032C0CD0BA4212D1B8F1000F0BDA234873
:103B60002549BDE8F08D28462449BDE8F08D28465A
:103B70007146BDE8F08D1D482149BDE8F08D921BCE
:103B800012153C2AC4BF19481D490EDCBAF1000FBA
:103B9000BEBF12F13C0F0020014606DB624600F07A
:103BA0003DF921F00041FFF761FE002C08BFBDE8A0
:103BB000F08D012C04BF81F00041BDE8F08D114A69
:103BC000114B022C07D000F071FC2A46BDE8F04DE5
:103BD0000A4B00F06BBC00F069FC2A46BDE8F04DD2
:103BE000064B00F071BB00000000F07F182D44541C
:103BF000FB2109C08E120000FB21F9BFFB21094007
:103C0000FB21F93F075C143326A6A13C2DE9F041C6
:103C100006460F4600F064FB04000D4618BF012065
:103C2000284320F00040C0F17F6000F1E040C00F69
:103C30000ED0301C18BF0120384320F00040C0F1E6
:103C40007F6000F1E040C00F04BF0120FFF718FCC7
:103C500020462946BDE8F08121F00042A2F16052E1
:103C6000B2F5801F01F0004328BFD2F17F6C0BD961
:103C70005FEA001C43EAC20242EB507018BF704773
:103C800028BF20F001007047B2F5801FBCBF184666
:103C900070474FEA410C1CF5001F02D2084600F0A5
:103CA000ECBE70B500F0BCFA00000089FFF7F6BF6B
:103CB0004FF00040A0F580007047000010B591EA79
:103CC000030F48BF83F0004300F1F883841A71EBBF
:103CD000030C05D2121943EB0C03001B61EB0C0122
:103CE000DFF824E14FEA1154A4EB135C1EEA430F02
:103CF00018BF9EEA445F73D023EA0E03DCF1200E66
:103D000021EA045143F4801332D322FA0CFE10EB63
:103D10000E0023FA0CFE41EB0E01CCF1200E03FA4B
:103D20000EFE10EB0E0051F10001B1F5801FCCF139
:103D3000200E32D201EB045112FA0EF2BDE810400F
:103D400058BF7047401C38BF5FEA420218BF704737
:103D5000002814BF20F0010041F100014FEA4103A7
:103D600013F5001F38BF7047A1F1C04100F0A6BA9B
:103D7000012A43EB0302ACF1200CDCF11F0E32BF31
:103D80004FF0000E23FA0CF310EB030041EB04514B
:103D9000B4EB115FD0D0A1EB045101F580114908BB
:103DA0005FEA300001EB04510ED350F1000038BF40
:103DB00012FA0EFE08D1BDE81040C9E7401C38BF1A
:103DC0005FEA4202CAD1C3E7BDE810404FEA4103AF
:103DD00013F5001F38BF7047A1F1C04100F06EBA63
:103DE0009EEA445F08D011EA5E0FBDE8104004BFB0
:103DF00001F0004100207047BDE8104070B500F0B0
:103E00000FFA00BF64FBBE3E0000E0FF02494FF026
:103E1000000000F0E8BE00BF0000F87F2DE9C041BF
:103E200030B4DFF8A0C23CEA111418BF3CEA131406
:103E300000F0EC8081EA03051CEA111444EAD57411
:103E400018BF1CEA131500F0C780A4EB05044FF05F
:103E5000004545EAC12145EAC32341EA505143EAFE
:103E6000525304F17F74994204F500344FEAC020A4
:103E70004FEAC22208BF904200F09C804FEA1365CF
:103E80000FF24016765D4FEA134506FB05F7C7F1C2
:103E9000807706FB07F74FEAD737A7FB0368764220
:103EA000C8F58038A7FB06CE38BFA8F1010807FB8C
:103EB00008E64FF0000EA6FB028CE6FB03CEDCF119
:103EC000000CCEF1004E38BFAEF1010EA6FB0C582F
:103ED0004FF000074FF00005E6FB0E87A1FB08C678
:103EE000A0FB07CE16EB0E0645F10005E1FB0765CA
:103EF00015F1E04E7EBFA4F580345FEA46066D41C1
:103F000016F1800745F100054FEA17274FEA0666CC
:103F100047EA0567A6F1DE46B6F1805F4FEA152550
:103F20001FD9384624F0010C05EBC471BCF1FE6FBB
:103F300001EB0C1102D8F0BCBDE8008124425CBF4B
:103F400001F5801E9EEAC47F02D4F0BCBDE800816A
:103F5000244238D4F0BCA1F1C041BDE8004100F0DA
:103F6000ADB94FEAD22242EA43524FEAD323A7FB2C
:103F700002864FEAD02040EA415007FB03661EEA62
:103F80000E0F4FEAD12105FB026658BFA6EB005683
:103F9000B6EB00564FEA520E4EEAC37E18EB0E0EF9
:103FA00056EB530EBDD518EB02085E417F1C55F150
:103FB0000005B6E74FF480154FF000074FF00006FC
:103FC0004FF00008ADE7F0BC4FF0000001F1C04138
:103FD00001F00041BDE8008111EA0C1F0CEA131545
:103FE00000D00CE013EA0C1F00F025804FF0000019
:103FF000F0BC81EA030101F00041BDE80081F0BCA2
:10400000BDE8004181EA030100F058B9F0BCBDE809
:10401000004170B500F004F9097EFC3E00F007B8DD
:1040200081EA03014FF0000001F00041704781EA8E
:10403000030100F043B9F0BCBDE800414FF00000BF
:1040400021497047FFFDFBF9F7F5F4F2F0EEEDEBD7
:10405000E9E8E6E4E3E1E0DEDDDBDAD8D7D5D4D386
:10406000D1D0CFCDCCCBCAC8C7C6C5C4C2C1C0BFD2
:10407000BEBDBCBBBAB9B8B7B6B5B4B3B2B1B0AFD8
:10408000AEADACABAAA9A8A8A7A6A5A4A3A3A2A1BC
:10409000A09F9F9E9D9C9C9B9A9999989797969577
:1040A00095949393929191908F8F8E8E8D8C8C8B13
:1040B0008B8A89898888878786858584848383829B
:1040C000828181800000FF070000F87FDFF848C18F
:1040D00070B51CEA111E1EBF1CEA13159EEA0C0FD8
:1040E00095EA0C0F00F06F8081EA030423EA4C1379
:1040F0004EEAD47E21EA4C1141F4801143F480133E
:10410000AE44A1FB024CA0FB0365AEF17F7E3619E5
:1041100055EB0C05A1FB034C4CF10003A0FB021C6A
:1041200016EB0C06654153F10003094218BF46F037
:10413000010613F4007F0BD14FEA03314FEA05303B
:10414000340341EA155140EA16506FF003020AE0C9
:104150004FEAC3214FEAC520F40241EA555140EA33
:1041600056506FF0020202EB2E4201EB025585EA37
:10417000CE710AD05FEA440C18BF24F0004450F11D
:10418000000041F1000120EAD47040F2FE7C62455B
:1041900000D270BDA84214BF4FF080444FF040449D
:1041A000002E08BF0024BEF1806FA8BFA1F1C0415E
:1041B000BDE8704080F282804FF0000001F1C04104
:1041C00001F0004170479EEA0C0F0CEA131518BF6E
:1041D00095EA0C0F06D04FF0000081EA030E0EF0B6
:1041E000004170BD00F01CF88900013E00F007B8E6
:1041F00000F009B84FEA430C5FEA5C5C08D081EA42
:10420000030100F05BB84FEA410C5FEA5C5CF6D159
:104210004FF00000014970470000FF070000F87FE1
:104220000EF1020E2EF0030E5EF8046B364205D43A
:10423000012A43EB030515F5001F12D8012841EBB5
:10424000010C1CF5001F0CD80ED14FEAD17C15F5DE
:10425000001F0CEB4C0C0CF1020C08BF4CEBD37C98
:1042600004E04FF0080C01E04FEAD37C0CEB4C0566
:1042700026FA05F606F00706B6F1040C06D20EEB98
:10428000860CBDE870404CF0010C6047DFE80CF094
:10429000090B02024FF000414FF00000A1F5002190
:1042A00070BD19461046012851EB010418BFD4F522
:1042B000001484BF002001F0004170BD0808A0F583
:1042C00000114FEA3101704791EA030F10B581F0F8
:1042D00000413FF5FBAC83F0004300F0EFB8000075
:1042E0002DE9F04101F5801CBCF5001FC0F2C38030
:1042F0004FEA115C21EA0C510CF1FD0C41F48011E4
:104300005FEA5C0C0CF5C07C01D3400049413DA440
:10431000890241EA905187028E0E0A0CA45D04FBCB
:1043200004F602FB06F6C6F14046A4FB0662F60D53
:1043300046EA422606FB06F4A4FB01235242C3F1DF
:10434000404338BF5B1EA6FB02420024E6FB032469
:10435000D20B42EA4446A6FB0623A1FB02E2A3FBE2
:1043600007E4A4184FF0000252F10002E3FB0142FF
:104370006442C2F1404E38BFAEF1010EA6FB0423E9
:104380004FF00002E6FB0E32A2FB03464FF00004A2
:10439000B61954F10004E2FB0264A1FB06E6A4FB9B
:1043A00007E816EB08064FF0000858F10008E4FB98
:1043B00001687642C8F1405838BFA8F10108A2FB55
:1043C00006E4A3FB08E52D194FF0000454F10004A6
:1043D000E2FB0854A1FB05E6A7FB04E818EB06087E
:1043E0004FF0000656F10006E1FB048618F12005A7
:1043F00056F10006A809A8F11B08B10908F03F080A
:10440000B8F10A0F40EA86601CD901EB0C51BDE8F7
:10441000F08100BFFCF5EEE8E2DDD8D3CFCBC7C317
:10442000C0BDB9B6B4B1AEACA9A7A5A3A19F9D9BD1
:104430009A9896959392908F8D8C8B898887868594
:1044400084838281A0FB006800FB01F208EB420834
:10445000B8EB872807D5341858EB0104D5D5401C94
:1044600051F10001D1E7341A78EB0104CDD4401E9C
:1044700071F10001C9E75FEA4C0C5FEA9C5C0DD169
:1044800005D34FF0000001F00041BDE8F081BDE828
:10449000F04170B5FFF7C4FE6DDBFFBEBDE8F04133
:1044A0004FF00000004970470000F87F10B591EA16
:1044B000030F48BF83F000433FF508AC841A71EB4B
:1044C000030C07D212198CF0004C43EB0C03001BB9
:1044D00061EB0C01DFF8A4E14FEA1154A4EB135C8B
:1044E0001EEA430F18BF9EEA445F00F0B08023EA43
:1044F0006E03524221EA0451C3EB6E0338BF5B1EC8
:10450000DCF1200E25D322FA0CFE10EB0E0043FA4C
:104510000CFE41EB0E01CCF1200E03FA0EFE10EB67
:104520000E0051F10001CCF1200E29D412FA0EF246
:1045300001EB0451BDE8104058BF7047401C1CBF40
:10454000B2F1004F704700280CBF491C20F0010059
:10455000704712EB020E43EB030218BF4FF0010E3F
:104560004EEA4202ACF1200CDCF11E0E54D943FAA3
:104570000CFE10EB0E0051F1FF31CCF11E0ED5D523
:104580000EF1010E12FA0EFE404141EB010101EB6A
:10459000445C5FEA5C5C10D910EBDE7001EB045107
:1045A00038BFBEF1004FBDE8104018BF704700286B
:1045B0000CBF491C20F00100704730D24FEAD42CC8
:1045C00011F5001124F400641BD0B1FA81F20B3A0A
:1045D000A41AA41ED2F12003914030FA03F3194328
:1045E000904001EBCC71002C01EB0451BDE8104070
:1045F000A8BF704701F1C0414FF0000001F0004139
:104600007047B0FA80F310FA03F100D110BDE41A3C
:10461000173C4805C90AE4E701EB045110BD4910F5
:1046200001EB0451BDE810404FEA300002E04FF0CA
:10463000000170474A0008BF0042F8D0B2F5001FE1
:1046400028BF704701F000414FF0000070479EEA1C
:10465000445F07D011EA5E0FBDE8104004BF00219F
:1046600000207047BDE8104070B5FFF7D9FD00BFCE
:1046700040DFF63E83F00041104670470000E0FF47
:1046800043004FEAD30C4FEA3C0C43401FBF4007A6
:104690000CF1605113F0FE4F70471CF0006F03D116
:1046A00000200CF0004170470CF0004343EA5070CA
:1046B00010B540EACC0000F09AF900BF000000926B
:1046C0004FEA0001FFF7FABD4FF000414FF0000044
:1046D000A1F500217047000090EA010F48BF81F06A
:1046E000004100F11282421A3CBF801A89184FEA39
:1046F000D0524FF07F4C1CEA410FA2EBD15318BFB0
:104700009CEA026F00F03B804FF0004C4CEA002026
:104710004CEA012121FA03FC10EB0C0C1ED202F131
:10472000FF325FEA1C2040EBC25038BF70471CF0DC
:104730007F0F4FEA400C18BFBCF17F4F38BF704766
:10474000C3F12003994008BF20F00100BCF17F4F66
:1047500038BF7047A0F1C04000F08FB94FEA3C006D
:10476000000A40EBC25028BF1CF0FF0F4FEA400C7C
:10477000E6D018BFBCF17F4F38BF7047EAE79CEA2C
:10478000026F05D010EA5C0F08BF00F000407047D0
:1047900010B500F02CF900BF64FBBE3E401058BFBE
:1047A000C0F14040491058BFC1F140418142EFF390
:1047B0000080704750EA010C00F113801CF5000FD7
:1047C00058BFBCF5000F01D48842704707D710F5D9
:1047D000000F58BF11F5000F15D488427047894269
:1047E00070471CF5000F04D5BCF5000FF7D58142CA
:1047F00070474FF0807C1CEB400F38BF1CEB410F23
:1048000001D28142704710B500F0F1F892244900BE
:104810004FF000504FF08051FFF7C0BF41000B0E2A
:10482000D3F19E0208D950F400034FEA032323FA80
:1048300002F048BF4042704710B500F0D8F800BF02
:1048400049922480002070476FF0004282EA2000E5
:104850007047000010F0004148BF4042B0FA80F3BA
:1048600010FA03F2C3F19D030BD051EAC35101EBDF
:104870001220530638BF704700F1010008BF20F036
:104880000100704750EA010C00F113801CF5000F85
:1048900058BFBCF5000F01D48842704707D710F508
:1048A000000F58BF11F5000F15D488427047894298
:1048B00070471CF5000F04D5BCF5000FF7D58142F9
:1048C00070474FF0807C1CEB400F38BF1CEB410F52
:1048D00001D28142704710B500F089F89224490056
:1048E0004FF000504FF08051FFF758BF4FF47F0C4E
:1048F0001CEAD0121EBF1CEAD11392EA0C0F93EAF5
:104900000C0F00F0478090EA010F48BF42F480721C
:104910004FF0004C4CEA00204CEA012102EB03026C
:10492000A0FB0113A2F50002002918BF43F0010308
:104930005B0028BF4FEA330342EB22425FEA132CAD
:104940004CEBC2502EBFBCEB436FB2F57C0F7047EF
:104950004FEA036CBCF1004F08BF20F00100B2F534
:104960007C0F38BF70470BD582F0FF0212F5803FF5
:10497000C8BF704700F1C040D8BF00F0004070478A
:1049800000F5000C5FEA4C0C48BF7047B0F1C04026
:1049900000F073B890EA010F0CEAD11348BF42F45B
:1049A0008072624538BF634504D280EA010000F09E
:1049B0000040704710B500F01AF800BF8900013EB2
:1049C00000F007B800F009B85FEA410C5FEA1C6C20
:1049D00008D080EA010000F050B85FEA400C5FEABE
:1049E0001C6CF6D14FF00040A0F5800070470EF12E
:1049F000020E2EF0030E5EF8044B244204D44FEA5C
:104A00004102B2F17F4F11D84FEA4003B3F17F4F1B
:104A10000CD80ED14FEAD07CB2F17F4F0CEB4C0C8E
:104A20000CF1020C08BF4CEBD17C04E04FF0080CF9
:104A300001E04FEAD17C0CEB4C0324FA03F404F0C0
:104A40000704B4F1040C06D20EEB840CBDE8104050
:104A50004CF0010C6047DFE80CF0070802024FF051
:104A60000040A0F5800010BD0846420018BFD2F1FA
:104A7000807288BF00F0004010BDFF2141EAD05095
:104A8000C005704751EA000C00F113801CF5000FBF
:104A900058BFBCF5000F01D48142704707D711F50C
:104AA000000F58BF10F5000F15D48142704789429E
:104AB00070471CF5000F04D5BCF5000FF7D58842F0
:104AC00070474FF0807C1CEB410F38BF1CEB400F50
:104AD00001D28842704780EA010081EA000180EA41
:104AE0000100FFF7F8BE80F0004090EA010F7FF56B
:104AF000FAAD81F0004100F008B8000090EA010F23
:104B000048BF81F000413FF5EEAD421A04D882F073
:104B10000042A0EB020011444FEAD0524FF07F4C0C
:104B20001CEA410FA2EBD15318BF9CEA026F4AD096
:104B30004FF0004C4CEA00204CEA012121FA03FC22
:104B4000B0EB0C0C0FD412F0FE0F36D05FEA4C0025
:104B50001DD5001240EBC25038BF70471CF03F0F0C
:104B600018BF70470BE0A2F101025FEA1C2040EB86
:104B7000C25038BF70471CF07F0F18BF7047C3F199
:104B80002003994014BF401E20F0010070478008A8
:104B90004FEA122308BF7047B0FA80FCA2EB0C0268
:104BA000CCF1280C60FA0CF093EA122F04BF00EB52
:104BB000C25070474FEAC3707047130A5FEADC10B7
:104BC00008BF7047F6E79CEA026F04D010EA5C0F5A
:104BD00008BF0020704710B5FFF709FF40DFF63E21
:104BE00081F0004070470CF00F03092B08BF08202C
:104BF00000F059800A2B0BD0082B18BF704708BF54
:104C00001CF0400F0AD04FF000004FF00001704739
:104C10001CF0400F18BF4FF0004070471CF0100F01
:104C200008D020F0704300F07F4242EAD3014FEAFF
:104C30004370704700F0604021F07F4242EA00027A
:104C400001F07F4040EA727070474FF0FF0C4CF467
:104C5000E06C1CEA11531CBF9CEA030C9445C2BFD4
:104C6000DA4201EB02517047002B0DD0BCF1000F6E
:104C70000FD0002A01F00041A4BF41F0E04141F013
:104C80007F614FF00000704701F000414FF00000DD
:104C9000704750EA01334FF09B0C18BF4CF0806C0A
:104CA0007FF4B4A870471CF4801F11D01CF4E02FCF
:104CB00003D06FEACC31490070474FF04050EFF31A
:104CC000008222F0704242EA000282F300887047BC
:104CD0004FF0000070470000555555555555C53FDC
:104CE0007D6FEB0312D6D4BF5544880E55C1C93F22
:104CF0003B8F68B52882A4BF88B20175E0EF493FB9
:104D000009F7FD0DE13D023F4B2D8A1C273A03C0F8
:104D1000C88A599CE52A004059018D1B6C06E6BFE4
:104D200082922EB1C5B8B33F4FBB610567ACDD3F82
:104D3000182D4454FB21E93F9BF681D20B73EF3FC2
:104D4000182D4454FB21F93FE2652F227F2B7A3C3A
:104D5000075C143326A6813CBDCBF07A8807703CF3
:104D6000075C143326A6913CC4EB98999999C9BF66
:104D7000711623FEC671BCBF6D9A74AFF2B0B3BF9B
:104D80009AFDDE522DDEADBF2F6C6A2C44B4A2BF5B
:104D90000D5555555555D53FFF8300922449C23FC7
:104DA0006E204CC5CD45B73F513DD0A0660DB13FFB
:104DB000EB0D76244B7BA93F11DA22E33AAD903F0D
:104DC0000000000000000000E84D00080000002086
:104DD000B4000000280100089C4E0008B400002028
:104DE000640600004401000800005A5A0000000058
:104DF00000000000000000000000000000000000B3
:104E000000000000000000000000000000000000A2
:104E10000000000000000000000000000000000092
:104E20000000CBFF0600030082001400B0FF0A0060
:104E3000ECFFE8FF000000000000000000000000A0
:104E40000000000000000000000000000000000062
:104E500000001643000000000000803F000000003A
:104E60000000000000000000000000000000000042
:104E7000000000000000000001020304010203041E
:104E8000060708090204060800A24A040000000000
:0C4E9000000000000102030406070809EE
:04000005080000ED02
:00000001FF
